{
  "contractName": "Election",
  "abi": [
    {
      "constant": true,
      "inputs": [],
      "name": "candidatesCount",
      "outputs": [
        {
          "name": "",
          "type": "uint256"
        }
      ],
      "payable": false,
      "stateMutability": "view",
      "type": "function"
    },
    {
      "constant": true,
      "inputs": [
        {
          "name": "",
          "type": "uint256"
        }
      ],
      "name": "candidates",
      "outputs": [
        {
          "name": "id",
          "type": "uint256"
        },
        {
          "name": "name",
          "type": "string"
        },
        {
          "name": "voteCount",
          "type": "uint256"
        }
      ],
      "payable": false,
      "stateMutability": "view",
      "type": "function"
    },
    {
      "constant": true,
      "inputs": [
        {
          "name": "",
          "type": "address"
        }
      ],
      "name": "voters",
      "outputs": [
        {
          "name": "",
          "type": "bool"
        }
      ],
      "payable": false,
      "stateMutability": "view",
      "type": "function"
    },
    {
      "inputs": [],
      "payable": false,
      "stateMutability": "nonpayable",
      "type": "constructor"
    },
    {
      "anonymous": false,
      "inputs": [
        {
          "indexed": true,
          "name": "_candidateId",
          "type": "uint256"
        }
      ],
      "name": "votedEvent",
      "type": "event"
    },
    {
      "constant": false,
      "inputs": [],
      "name": "startPoll",
      "outputs": [],
      "payable": false,
      "stateMutability": "nonpayable",
      "type": "function"
    },
    {
      "constant": false,
      "inputs": [],
      "name": "endPoll",
      "outputs": [],
      "payable": false,
      "stateMutability": "nonpayable",
      "type": "function"
    },
    {
      "constant": false,
      "inputs": [
        {
          "name": "_candidateId",
          "type": "uint256"
        }
      ],
      "name": "vote",
      "outputs": [],
      "payable": false,
      "stateMutability": "nonpayable",
      "type": "function"
    }
  ],
  "bytecode": "0x608060405260008060006101000a81548160ff02191690831515021790555034801561002a57600080fd5b506100786040805190810160405280600b81526020017f43616e64696461746520310000000000000000000000000000000000000000008152506100ca640100000000026401000000009004565b6100c56040805190810160405280600b81526020017f43616e64696461746520320000000000000000000000000000000000000000008152506100ca640100000000026401000000009004565b6101ec565b60036000815480929190600101919050555060606040519081016040528060035481526020018281526020016000815250600260006003548152602001908152602001600020600082015181600001556020820151816001019080519060200190610136929190610147565b506040820151816002015590505050565b828054600181600116156101000203166002900490600052602060002090601f016020900481019282601f1061018857805160ff19168380011785556101b6565b828001600101855582156101b6579182015b828111156101b557825182559160200191906001019061019a565b5b5090506101c391906101c7565b5090565b6101e991905b808211156101e55760008160009055506001016101cd565b5090565b90565b61049b806101fb6000396000f300608060405260043610610078576000357c0100000000000000000000000000000000000000000000000000000000900463ffffffff1680630121b93f1461007d5780632d35a8a2146100aa5780633477ee2e146100d55780638d99b2eb14610189578063a3ec138d146101a0578063d609692b146101fb575b600080fd5b34801561008957600080fd5b506100a860048036038101908080359060200190929190505050610212565b005b3480156100b657600080fd5b506100bf61034f565b6040518082815260200191505060405180910390f35b3480156100e157600080fd5b5061010060048036038101908080359060200190929190505050610355565b6040518084815260200180602001838152602001828103825284818151815260200191508051906020019080838360005b8381101561014c578082015181840152602081019050610131565b50505050905090810190601f1680156101795780820380516001836020036101000a031916815260200191505b5094505050505060405180910390f35b34801561019557600080fd5b5061019e610417565b005b3480156101ac57600080fd5b506101e1600480360381019080803573ffffffffffffffffffffffffffffffffffffffff169060200190929190505050610433565b604051808215151515815260200191505060405180910390f35b34801561020757600080fd5b50610210610453565b005b600160003373ffffffffffffffffffffffffffffffffffffffff1673ffffffffffffffffffffffffffffffffffffffff16815260200190815260200160002060009054906101000a900460ff1615151561026b57600080fd5b6000809054906101000a900460ff16151561028557600080fd5b60008111801561029757506003548111155b15156102a257600080fd5b60018060003373ffffffffffffffffffffffffffffffffffffffff1673ffffffffffffffffffffffffffffffffffffffff16815260200190815260200160002060006101000a81548160ff0219169083151502179055506002600082815260200190815260200160002060020160008154809291906001019190505550807ffff3c900d938d21d0990d786e819f29b8d05c1ef587b462b939609625b684b1660405160405180910390a250565b60035481565b6002602052806000526040600020600091509050806000015490806001018054600181600116156101000203166002900480601f0160208091040260200160405190810160405280929190818152602001828054600181600116156101000203166002900480156104075780601f106103dc57610100808354040283529160200191610407565b820191906000526020600020905b8154815290600101906020018083116103ea57829003601f168201915b5050505050908060020154905083565b60008060006101000a81548160ff021916908315150217905550565b60016020528060005260406000206000915054906101000a900460ff1681565b60016000806101000a81548160ff0219169083151502179055505600a165627a7a72305820a6862e29085d118b02404baa358dacc0ab2ce5bf7ba2b617fbb5810277cbbabd0029",
  "source": "pragma solidity >=0.4.25;\r\n\r\ncontract Election {\r\n    // Model a Candidate\r\n    struct Candidate {\r\n        uint256 id;\r\n        string name;\r\n        uint256 voteCount;\r\n    }\r\n    // bool to check if we are in elections\r\n    bool canVote = false;\r\n\r\n    // Store accounts that have voted\r\n    mapping(address => bool) public voters;\r\n    // Store Candidates\r\n    // Fetch Candidate\r\n    mapping(uint256 => Candidate) public candidates;\r\n    // Store Candidates Count\r\n    uint256 public candidatesCount;\r\n\r\n    // voted event\r\n    event votedEvent(uint256 indexed _candidateId);\r\n\r\n    constructor() public {\r\n        addCandidate(\"Candidate 1\");\r\n        addCandidate(\"Candidate 2\");\r\n    }\r\n\r\n    function addCandidate(string _name) private {\r\n        candidatesCount++;\r\n        candidates[candidatesCount] = Candidate(candidatesCount, _name, 0);\r\n    }\r\n\r\n    function startPoll() public {\r\n        canVote = true;\r\n    }\r\n\r\n    function endPoll() public {\r\n        canVote = false;\r\n    }\r\n\r\n    function vote(uint256 _candidateId) public {\r\n        // require that they haven't voted before\r\n        require(!voters[msg.sender]);\r\n        require(canVote);\r\n        // require a valid candidate\r\n        require(_candidateId > 0 && _candidateId <= candidatesCount);\r\n\r\n        // record that voter has voted\r\n        voters[msg.sender] = true;\r\n\r\n        // update candidate vote Count\r\n        candidates[_candidateId].voteCount++;\r\n\r\n        // trigger voted event\r\n        emit votedEvent(_candidateId);\r\n    }\r\n}\r\n",
  "sourcePath": "D:\\Documents\\election\\contracts\\Election.sol",
  "compiler": {
    "name": "solc",
    "version": "0.4.25+commit.59dbf8f1.Emscripten.clang"
  },
  "schemaVersion": "3.4.8",
  "updatedAt": "2022-07-30T23:59:25.825Z",
  "networkType": "ethereum",
  "devdoc": {
    "methods": {}
  },
  "userdoc": {
    "methods": {}
  }
}